:100000000C943C000C9400000C9400000C94000034
:100010000C9400000C9400000C9400000C94000060
:100020000C9400000C9400000C9400000C94000050
:100030000C9400000C9400000C9400000C94000040
:100040000C9400000C9400000C9400000C94000030
:100050000C9400001027E80364000A00010000105F
:100060000001100001007777772E6E616D696E696F
:10007000632E636F6D0A0D00F894EE27ECBBF1E080
:10008000FBBFEBBFE5BFF8E1F1BDE1BD8DE0A2E054
:10009000BB27ED938A95E9F780E098E0A0E6ED9321
:1000A0000197E9F7EFE5EDBFE8E0EEBFC0E6D2E08B
:1000B0000C945A00E0E0EBBBEABBE8BBE7BBE5BB56
:1000C000E4BBE2BBE1BBEBB9E8E0EAB9E6E8E0BDDE
:1000D000E0E0E0BDE3E3E9B9E6E6F0E0FA93EA93B5
:1000E00080E00E94C5012296A8EEB3E00E9428029B
:1000F000F3CFFFCFAA935D9BFECFE881ECB92196A9
:100100000895BA93AA93AA81F5DFA881B981ED91E8
:10011000FD913196FE93EE9323960895BA93AA9398
:1001200026970E94420210E0AC85BD85E0E0F0E039
:10013000ED93FC93EA89FB893196EA8BFB8B31972F
:10014000E4912E2FE03011F40C94BD01E12FE0304A
:1001500039F4253211F411E002C00E9403020CC1EF
:10016000E130A9F4253219F40E94030204C112E01F
:1001700040E000E02D3211F401E0FEC02B3211F41A
:100180004BE2FAC0203211F440E2F6C002C0E23085
:1001900039F450E013E0203311F40068EDC004C0DE
:1001A000E33011F00C94BC01203310F02A3308F036
:1001B00007C0AAE05A9F502DE22FE0535E0FDCC02B
:1001C000E22FE33649F40E940A02E889F989A48102
:1001D000AA930E941002CFC0E33741F40E940A02A2
:1001E0000E9416020E94EA011E2F0AC0E03761F445
:1001F0000E940A020E9416020E94F6011E2F086049
:1002000002600F7730E035C0E43611F0E93611F4C2
:10021000046002C0E53731F4E4E5F0E0EE83FF83EB
:1002200015E00DC0E83511F4086004C0E83711F09E
:100230000C94BB01EEE5F0E0EE83FF8314E002FFD7
:1002400014C00E940A020E942002AB85AA233AF43D
:10025000EA85FB850E943602EA87FB874DE2403043
:1002600011F01F5F01C00B7F04C00E940A020E94B0
:10027000200200FD11C0151778F407FF08C002FF27
:1002800004C00B7F242F115001C020E301C020E2E5
:100290000E9403025150EFCF312F01FF17C03030C1
:1002A000A1F003FF06C0EE81FF812591EE83FF835D
:1002B00005C0AE81BF812D91AE83BF830E94030232
:1002C000503009F051503150EACF4BC020E3EE815D
:1002D000FF810E943E02E887F987EE81FF81329616
:1002E000EE83FF83E885F985AA85BB85AE17BF0736
:1002F00050F02F5FA885B985EA85FB85EA1BFB0BCB
:10030000EA87FB87EFCF2A3328F003FF02C0295F7B
:1003100001C0295D04FD1AC0213320F4A885B985E8
:10032000119709F409C0531710F000FF01C013C062
:1003300020E207FF0BC020E3006102FF07C00B7F34
:100340004A930E941002503009F051500E9403025B
:10035000503009F051503150A885B985129708F0F6
:10036000B5CF00FF08C0503031F05150E0E2EA93C1
:100370000E941002F8CF10E0DDCEAC85BD850E9452
:100380003A020E94490264960895FF92F82E269739
:100390001A930A93DE0114960E9432028D01E0E066
:1003A000EC83ED83EE83EF83DE0118960E94320228
:1003B0000E943A02FA93EA931A930A93E1E8F0E072
:1003C000FA93EA93DE011896A9DE1981088128962E
:1003D000FF900895BA93AA93A991B991EE27FF27A8
:1003E0006D91662311F03196FBCF0895BA93AA93CD
:1003F000AA27BB27E991F9910590002011F01196E9
:10040000FBCFFD0108952A93AD85BE85EF85F88960
:1004100009950895E889F9893497E88BF98B08954F
:10042000AD85BE85EF85F88909950895A889B989B4
:1004300014960E943A02EE83FF83AE81BF81089535
:10044000A889B98914960E943A02EA87FB87089521
:10045000109639F080ED97E00197F1F7A895119784
:10046000C9F708950024AF0DB01D0895F195E195E9
:10047000F0400895ED91FC91119708950590F49145
:10048000E02D08955A934A933A932A931A930A9324
:1004900008955D814C813B812A81198108810895ED
:00000001FF
